:10000000BDC10000DCC10000DAC10000D8C10000A1
:10001000D6C10000D4C10000D2C10000D0C1000090
:10002000CEC10000CCC10000CAC10000C8C10000A0
:10003000C6C10000C4C100001AC2000045C20000D1
:1000400070C200009BC20000C6C20000F1C20000E6
:100050001CC3000047C3000072C300009DC3000022
:10006000AEC10000ACC10000AAC10000A8C10000E0
:10007000A6C10000A4C10000A2C10000A0C10000F0
:100080009EC100009CC100009AC1000098C1000000
:1000900096C1000094C1000092C100000C94D10AE6
:1000A0000C94030B0C94350B0C94670B88C1000067
:1000B00086C1000084C1000082C100005CC5000050
:1000C00087C50000B2C50000DDC5000008C60000FD
:1000D00033C600005EC6000089C60000B4C600003A
:1000E000DFC600006CC100006AC1000068C10000EA
:1000F00066C1000064C1000062C1000060C1000070
:100100005EC100005CC100005AC1000058C100007F
:1001100056C1000054C1000052C100000C94090AED
:100120000C943B0A0C946D0A0C949F0A48C1000081
:1001300046C100005EC3000089C30000B4C30000D4
:10014000DFC300000AC4000035C4000060C4000022
:100150008BC40000B6C40000E1C4000030C1000040
:100160002EC100002CC100002AC1000028C10000DF
:1001700026C1000024C1000022C1000020C10000EF
:100180001EC100001CC100001AC1000018C10000FF
:1001900016C1000014C1000012C1000010C100000F
:1001A0000EC100000CC100000AC1000008C100001F
:1001B000A4C60000CFC60000FAC6000025C7000094
:1001C00050C700007BC70000FAC00000F8C0000064
:1001D000F6C00000F4C00000F2C00000F0C0000053
:1001E000EEC00000ECC00000EAC00000E8C0000063
:1001F000E6C00000E4C00000E2C000000000000013
:1002000000000000000000000000000000000000EE
:1002100000000000000000000000000000000000DE
:1002200000000000000000000000000001000100CC
:1002300001000100010002000200020003000300AF
:100240000400050005000600070008000A000B0076
:100250000D000F001200140017001B001F002400E7
:100260002900300037003F004900540061006F0052
:1002700080009300AA00C300E10003010000020017
:100280000900160027003E00590079009E00C800B2
:10029000F7002B016301A001E20129027402C402EC
:1002A00018037103CE033004960400056F05E105C1
:1002B0005806D2065107D3075A08E3087109020A03
:1002C000960A2E0BC90B670C080DAC0D530EFC0ED5
:1002D000A80F57100811BC1172122A13E4139F14AF
:1002E0005D151C16DD169F1762182719ED19B31A34
:1002F0007B1B431C0C1DD51D9E1E681F3220FC203D
:10030000C5218F2258232024E824AF2575263A27BB
:10031000FF27C1288329432A012BBE2B792C322D9C
:10032000E82D9D2E4F2F0030AD3058310032A632CF
:100330004833E83384341E35B4354636D536613714
:10034000E9376D38EE386A39E339583AC83A343B00
:100350009D3B003C603CBB3C123D643DB13DFA3DE1
:100360003E3E7E3EB93EEF3E203F4C3F743F973FBE
:10037000B43FCD3FE13FF03FFA3FFF3F11241FBEA6
:10038000CFEFCDBFDFE5DEBF00E00CBF10E2A0E0A5
:10039000B0E2EAE2F4E200E00BBF02C007900D9287
:1003A000A032B107D9F726E2A0E2B0E201C01D9267
:1003B000AC37B207E1F70E9449100C94131220CE1B
:1003C000811522E0920769F48091212091E0980F35
:1003D00090932120811114C062E081E00C94AF0C55
:1003E00008958034924061F48091202091E0980F2C
:1003F00090932020811104C062E082E00C94AF0C45
:100400000895811522E0920761F4809121208150A6
:1004100080932120811113C062E081E00C94BB0C19
:1004200008958034924059F4809120208150809327
:100430002020811104C062E082E00C94BB0C08957E
:100440001F93CF93DF93EC011FB7F894B9DF888136
:10045000816088831FBF8FB7F894E7E7F6E2908149
:100460009F5F90838FBFDF91CF911F9108951F925F
:100470000F920FB60F9211240BB60F922F933F934A
:100480004F935F936F937F938F939F93AF93BF939C
:10049000EF93FF93E0916820F0916920309709F085
:1004A0001995FF91EF91BF91AF919F918F917F919E
:1004B0006F915F914F913F912F910F900BBE0F90D5
:1004C0000FBE0F901F9018951F920F920FB60F92AC
:1004D00011240BB60F922F933F934F935F936F931B
:1004E0007F938F939F93AF93BF93EF93FF93E0918D
:1004F0006620F0916720309709F01995FF91EF91F0
:10050000BF91AF919F918F917F916F915F914F912B
:100510003F912F910F900BBE0F900FBE0F901F9029
:1005200018951F920F920FB60F9211240BB60F92CF
:100530002F933F934F935F936F937F938F939F93EB
:10054000AF93BF93EF93FF93E0916420F091652008
:10055000309709F01995FF91EF91BF91AF919F915D
:100560008F917F916F915F914F913F912F910F905C
:100570000BBE0F900FBE0F901F9018951F920F92F9
:100580000FB60F9211240BB60F922F933F934F93F8
:100590005F936F937F938F939F93AF93BF93EF93EB
:1005A000FF93E0916220F0916320309709F0199554
:1005B000FF91EF91BF91AF919F918F917F916F913B
:1005C0005F914F913F912F910F900BBE0F900FBEF7
:1005D0000F901F9018951F920F920FB60F92112433
:1005E0000BB60F922F933F934F935F936F937F932D
:1005F0008F939F93AF93BF93EF93FF93E09160200E
:10060000F0916120309709F01995FF91EF91BF911A
:10061000AF919F918F917F916F915F914F913F919A
:100620002F910F900BBE0F900FBE0F901F9018953B
:100630001F920F920FB60F9211240BB60F922F93A9
:100640003F934F935F936F937F938F939F93AF935A
:10065000BF93EF93FF93E0915E20F0915F2030977E
:1006600009F01995FF91EF91BF91AF919F918F91F3
:100670007F916F915F914F913F912F910F900BBEA2
:100680000F900FBE0F901F9018951F920F920FB6EC
:100690000F9211240BB60F922F933F934F935F93BA
:1006A0006F937F938F939F93AF93BF93EF93FF933A
:1006B000E0915C20F0915D20309709F01995FF9151
:1006C000EF91BF91AF919F918F917F916F915F91CA
:1006D0004F913F912F910F900BBE0F900FBE0F9037
:1006E0001F9018951F920F920FB60F9211240BB600
:1006F0000F922F933F934F935F936F937F938F93BB
:100700009F93AF93BF93EF93FF93E0915A20F091A3
:100710005B20309709F01995FF91EF91BF91AF9150
:100720009F918F917F916F915F914F913F912F9109
:100730000F900BBE0F900FBE0F901F9018951F9239
:100740000F920FB60F9211240BB60F922F933F9377
:100750004F935F936F937F938F939F93AF93BF93C9
:10076000EF93FF93E0915820F0915920309709F0D2
:100770001995FF91EF91BF91AF919F918F917F91CB
:100780006F915F914F913F912F910F900BBE0F9002
:100790000FBE0F901F9018951F920F920FB60F92D9
:1007A00011240BB60F922F933F934F935F936F9348
:1007B0007F938F939F93AF93BF93EF93FF93E091BA
:1007C0005620F0915720309709F01995FF91EF913D
:1007D000BF91AF919F918F917F916F915F914F9159
:1007E0003F912F910F900BBE0F900FBE0F901F9057
:1007F00018951F920F920FB60F9211240BB60F92FD
:100800002F933F934F935F936F937F938F939F9318
:10081000AF93BF93EF93FF93E0915420F091552055
:10082000309709F01995FF91EF91BF91AF919F918A
:100830008F917F916F915F914F913F912F910F9089
:100840000BBE0F900FBE0F901F9018951F920F9226
:100850000FB60F9211240BB60F922F933F934F9325
:100860005F936F937F938F939F93AF93BF93EF9318
:10087000FF93E0915220F0915320309709F01995A1
:10088000FF91EF91BF91AF919F918F917F916F9168
:100890005F914F913F912F910F900BBE0F900FBE24
:1008A0000F901F9018951F920F920FB60F92112460
:1008B0000BB60F922F933F934F935F936F937F935A
:1008C0008F939F93AF93BF93EF93FF93E09150204B
:1008D000F0915120309709F01995FF91EF91BF9158
:1008E000AF919F918F917F916F915F914F913F91C8
:1008F0002F910F900BBE0F900FBE0F901F90189569
:100900001F920F920FB60F9211240BB60F922F93D6
:100910003F934F935F936F937F938F939F93AF9387
:10092000BF93EF93FF93E0914E20F0914F203097CB
:1009300009F01995FF91EF91BF91AF919F918F9120
:100940007F916F915F914F913F912F910F900BBECF
:100950000F900FBE0F901F9018951F920F920FB619
:100960000F9211240BB60F922F933F934F935F93E7
:100970006F937F938F939F93AF93BF93EF93FF9367
:10098000E0914C20F0914D20309709F01995FF919E
:10099000EF91BF91AF919F918F917F916F915F91F7
:1009A0004F913F912F910F900BBE0F900FBE0F9064
:1009B0001F9018951F920F920FB60F9211240BB62D
:1009C0000F922F933F934F935F936F937F938F93E8
:1009D0009F93AF93BF93EF93FF93E0914A20F091E1
:1009E0004B20309709F01995FF91EF91BF91AF918E
:1009F0009F918F917F916F915F914F913F912F9137
:100A00000F900BBE0F900FBE0F901F9018951F9266
:100A10000F920FB60F9211240BB60F922F933F93A4
:100A20004F935F936F937F938F939F93AF93BF93F6
:100A3000EF93FF93E0914820F0914920309709F01F
:100A40001995FF91EF91BF91AF919F918F917F91F8
:100A50006F915F914F913F912F910F900BBE0F902F
:100A60000FBE0F901F9018951F920F920FB60F9206
:100A700011240BB60F922F933F934F935F936F9375
:100A80007F938F939F93AF93BF93EF93FF93E091E7
:100A90004620F0914720309709F01995FF91EF918A
:100AA000BF91AF919F918F917F916F915F914F9186
:100AB0003F912F910F900BBE0F900FBE0F901F9084
:100AC00018951F920F920FB60F9211240BB60F922A
:100AD0002F933F934F935F936F937F938F939F9346
:100AE000AF93BF93EF93FF93E0914420F0914520A3
:100AF000309709F01995FF91EF91BF91AF919F91B8
:100B00008F917F916F915F914F913F912F910F90B6
:100B10000BBE0F900FBE0F901F9018951F920F9253
:100B20000FB60F9211240BB60F922F933F934F9352
:100B30005F936F937F938F939F93AF93BF93EF9345
:100B4000FF93E0914220F0914320309709F01995EE
:100B5000FF91EF91BF91AF919F918F917F916F9195
:100B60005F914F913F912F910F900BBE0F900FBE51
:100B70000F901F9018951F920F920FB60F9211248D
:100B80000BB60F922F933F934F935F936F937F9387
:100B90008F939F93AF93BF93EF93FF93E091402088
:100BA000F0914120309709F01995FF91EF91BF9195
:100BB000AF919F918F917F916F915F914F913F91F5
:100BC0002F910F900BBE0F900FBE0F901F90189596
:100BD0001F920F920FB60F9211240BB60F922F9304
:100BE0003F934F935F936F937F938F939F93AF93B5
:100BF000BF93EF93FF93E0913E20F0913F20309719
:100C000009F01995FF91EF91BF91AF919F918F914D
:100C10007F916F915F914F913F912F910F900BBEFC
:100C20000F900FBE0F901F9018951F920F920FB646
:100C30000F9211240BB60F922F933F934F935F9314
:100C40006F937F938F939F93AF93BF93EF93FF9394
:100C5000E0913C20F0913D20309709F01995FF91EB
:100C6000EF91BF91AF919F918F917F916F915F9124
:100C70004F913F912F910F900BBE0F900FBE0F9091
:100C80001F9018951F920F920FB60F9211240BB65A
:100C90000F922F933F934F935F936F937F938F9315
:100CA0009F93AF93BF93EF93FF93E0913A20F0911E
:100CB0003B20309709F01995FF91EF91BF91AF91CB
:100CC0009F918F917F916F915F914F913F912F9164
:100CD0000F900BBE0F900FBE0F901F9018951F9294
:100CE0000F920FB60F9211240BB60F922F933F93D2
:100CF0004F935F936F937F938F939F93AF93BF9324
:100D0000EF93FF93E0913820F0913920309709F06C
:100D10001995FF91EF91BF91AF919F918F917F9125
:100D20006F915F914F913F912F910F900BBE0F905C
:100D30000FBE0F901F9018951F920F920FB60F9233
:100D400011240BB60F922F933F934F935F936F93A2
:100D50007F938F939F93AF93BF93EF93FF93E09114
:100D60003620F0913720309709F01995FF91EF91D7
:100D7000BF91AF919F918F917F916F915F914F91B3
:100D80003F912F910F900BBE0F900FBE0F901F90B1
:100D900018951F920F920FB60F9211240BB60F9257
:100DA0002F933F934F935F936F937F938F939F9373
:100DB000AF93BF93EF93FF93E0913420F0913520F0
:100DC000309709F01995FF91EF91BF91AF919F91E5
:100DD0008F917F916F915F914F913F912F910F90E4
:100DE0000BBE0F900FBE0F901F9018951F920F9281
:100DF0000FB60F9211240BB60F922F933F934F9380
:100E00005F936F937F938F939F93AF93BF93EF9372
:100E1000FF93E0913220F0913320309709F019953B
:100E2000FF91EF91BF91AF919F918F917F916F91C2
:100E30005F914F913F912F910F900BBE0F900FBE7E
:100E40000F901F9018951F920F920FB60F921124BA
:100E50000BB60F922F933F934F935F936F937F93B4
:100E60008F939F93AF93BF93EF93FF93E0913020C5
:100E7000F0913120309709F01995FF91EF91BF91D2
:100E8000AF919F918F917F916F915F914F913F9122
:100E90002F910F900BBE0F900FBE0F901F901895C3
:100EA0001F920F920FB60F9211240BB60F922F9331
:100EB0003F934F935F936F937F938F939F93AF93E2
:100EC000BF93EF93FF93E0912E20F0912F20309766
:100ED00009F01995FF91EF91BF91AF919F918F917B
:100EE0007F916F915F914F913F912F910F900BBE2A
:100EF0000F900FBE0F901F9018951F920F920FB674
:100F00000F9211240BB60F922F933F934F935F9341
:100F10006F937F938F939F93AF93BF93EF93FF93C1
:100F2000E0912C20F0912D20309709F01995FF9138
:100F3000EF91BF91AF919F918F917F916F915F9151
:100F40004F913F912F910F900BBE0F900FBE0F90BE
:100F50001F9018951F920F920FB60F9211240BB687
:100F60000F922F933F934F935F936F937F938F9342
:100F70009F93AF93BF93EF93FF93E0912A20F0915B
:100F80002B20309709F01995FF91EF91BF91AF9108
:100F90009F918F917F916F915F914F913F912F9191
:100FA0000F900BBE0F900FBE0F901F9018951F92C1
:100FB0000F920FB60F9211240BB60F922F933F93FF
:100FC0004F935F936F937F938F939F93AF93BF9351
:100FD000EF93FF93E0912820F0912920309709F0BA
:100FE0001995FF91EF91BF91AF919F918F917F9153
:100FF0006F915F914F913F912F910F900BBE0F908A
:101000000FBE0F901F9018951F920F920FB60F9260
:1010100011240BB60F922F933F934F935F936F93CF
:101020007F938F939F93AF93BF93EF93FF93E09141
:101030002620F0912720309709F01995FF91EF9124
:10104000BF91AF919F918F917F916F915F914F91E0
:101050003F912F910F900BBE0F900FBE0F901F90DE
:1010600018951F920F920FB60F9211240BB60F9284
:101070002F933F934F935F936F937F938F939F93A0
:10108000AF93BF93EF93FF93E0912420F09125203D
:10109000309709F01995FF91EF91BF91AF919F9112
:1010A0008F917F916F915F914F913F912F910F9011
:1010B0000BBE0F900FBE0F901F9018951F920F92AE
:1010C0000FB60F9211240BB60F922F933F934F93AD
:1010D0005F936F937F938F939F93AF93BF93EF93A0
:1010E000FF93E0912220F0912320309709F0199589
:1010F000FF91EF91BF91AF919F918F917F916F91F0
:101100005F914F913F912F910F900BBE0F900FBEAB
:101110000F901F901895CF93CFB7F894282F392FA1
:10112000211588E0380739F461E083E018D464E0E1
:1011300083E015D443C0203488E0380739F462E0F6
:1011400083E00DD464E083E00AD438C0211589E03F
:10115000380739F461E084E002D464E084E0FFD32E
:101160002DC0203489E0380739F462E084E0F7D3F9
:1011700064E084E0F4D322C021158AE0380739F412
:1011800061E085E0ECD364E085E0E9D317C020346A
:101190008AE0380739F462E085E0E1D364E085E075
:1011A000DED30CC021153B4039F461E086E0D7D393
:1011B00064E086E0D4D302C0CFBF09C08FB7F894F3
:1011C000E7E7F6E290819F5F90838FBFCFBFCF911B
:1011D0000895811528E0920729F4609368207093A0
:1011E00069200895803428E0920729F460935C20F8
:1011F00070935D200895811529E0920729F460938A
:101200005420709355200895803429E0920729F4E2
:101210006093482070934920089581152AE0920731
:1012200029F46093402070934120089580342AE08F
:10123000920729F460933420709335200895811526
:101240009B4021F460932C2070932D2008952F92C1
:101250003F924F925F926F927F928F929F92AF9246
:10126000BF92CF92DF92EF92FF920F931F93CF9393
:10127000DF938C010E5F1D4FEC0140E050E00F2E1C
:10128000FCEFCF2EF1E0DF2EF02D0F2EFEEF2F2EF4
:10129000F1E03F2EF02D7E01A881B981F801B290D6
:1012A000A2908F019D010E94EE112B013C0195013E
:1012B000D5010E94EE11460E571E681E791E53017D
:1012C0004201072E7EE0B594A794979487947A956F
:1012D000D1F7702DF60185919491A0E0B0E08815CA
:1012E0009905AA05BB05C4F4910181E090E0F901DC
:1012F00045905490612C712C481459046A047B0465
:101300003CF401962E5F3F4F8034910581F707C072
:101310008034910549F406C080E090E005C08FE379
:1013200090E002C08FE390E0F701808391832296E2
:101330004F5F5F4F4038510509F0ADCFDF91CF913E
:101340001F910F91FF90EF90DF90CF90BF90AF90E3
:101350009F908F907F906F905F904F903F902F90D5
:101360000895CF92DF92EF92FF920F931F93CF9346
:10137000DF938C017C010F2EFCE7CF2EF3E0DF2EF4
:10138000F02DCCE7D2E0FE0125913491F701A08148
:10139000B1810E940312AB01BC01032E3EE07595A2
:1013A0006795579547953A95D1F7302D41935193CD
:1013B0007F012296CC15DD0531F7CAE7D3E01395FE
:1013C0000F2EFAE7EF2EF2E0FF2EF02DFE01259111
:1013D0003491F801A081B1810E940312AB01BC01DC
:1013E000032E3EE075956795579547953A95D1F749
:1013F000302D419351938F012297CE15DF0531F7A0
:10140000DF91CF911F910F91FF90EF90DF90CF90E0
:1014100008951F920F920FB60F9211240BB60F92E0
:101420002F933F934F935F936F937F938F939F93EC
:10143000AF93BF93EF93FF93E0E0F2E044A155A197
:10144000E0917426F091752661E080E092E01995B4
:10145000FF91EF91BF91AF919F918F917F916F918C
:101460005F914F913F912F910F900BBE0F900FBE48
:101470000F901F9018951F920F920FB60F92112484
:101480000BB60F922F933F934F935F936F937F937E
:101490008F939F93AF93BF93EF93FF93E8E2F2E0B4
:1014A00044815581E0917426F091752662E080E0D8
:1014B00092E01995FF91EF91BF91AF919F918F911C
:1014C0007F916F915F914F913F912F910F900BBE44
:1014D0000F900FBE0F901F9018951F920F920FB68E
:1014E0000F9211240BB60F922F933F934F935F935C
:1014F0006F937F938F939F93AF93BF93EF93FF93DC
:10150000E0E3F2E044815581E0917426F091752684
:1015100064E080E092E01995FF91EF91BF91AF9167
:101520009F918F917F916F915F914F913F912F91FB
:101530000F900BBE0F900FBE0F901F9018951F922B
:101540000F920FB60F9211240BB60F922F933F9369
:101550004F935F936F937F938F939F93AF93BF93BB
:10156000EF93FF93E8E3F2E044815581E091742624
:10157000F091752668E080E092E01995FF91EF9177
:10158000BF91AF919F918F917F916F915F914F919B
:101590003F912F910F900BBE0F900FBE0F901F9099
:1015A00018951F920F920FB60F9211240BB60F923F
:1015B0002F933F934F935F936F937F938F939F935B
:1015C000AF93BF93EF93FF93E0E4F2E044A155A102
:1015D000E0917226F091732661E080E492E0199523
:1015E000FF91EF91BF91AF919F918F917F916F91FB
:1015F0005F914F913F912F910F900BBE0F900FBEB7
:101600000F901F9018951F920F920FB60F921124F2
:101610000BB60F922F933F934F935F936F937F93EC
:101620008F939F93AF93BF93EF93FF93E8E6F2E01E
:1016300044815581E0917226F091732662E080E446
:1016400092E01995FF91EF91BF91AF919F918F918A
:101650007F916F915F914F913F912F910F900BBEB2
:101660000F900FBE0F901F9018951F920F920FB6FC
:101670000F9211240BB60F922F933F934F935F93CA
:101680006F937F938F939F93AF93BF93EF93FF934A
:10169000E0E7F2E044815581E0917226F0917326F3
:1016A00064E080E492E01995FF91EF91BF91AF91D2
:1016B0009F918F917F916F915F914F913F912F916A
:1016C0000F900BBE0F900FBE0F901F9018951F929A
:1016D0000F920FB60F9211240BB60F922F933F93D8
:1016E0004F935F936F937F938F939F93AF93BF932A
:1016F000EF93FF93E8E7F2E044815581E091722691
:10170000F091732668E080E492E01995FF91EF91E3
:10171000BF91AF919F918F917F916F915F914F9109
:101720003F912F910F900BBE0F900FBE0F901F9007
:101730001895DF92EF92FF920F931F93CF93DF9351
:10174000EC018B01C11522E0D20771F461E270E077
:1017500082E01CD1E82EF12C60E270E082E016D12C
:10176000FE2CEE24E82A10C08034924069F565E230
:1017700070E082E00BD1E82EF12C64E270E082E0B0
:1017800005D1FE2CEE24E82ADFB6F894CE010E94A3
:10179000E001288182E08883EC86FD86F80185815E
:1017A0009681888F998F82818A8384818C838381BB
:1017B0008B8381818983822F81709081892B88839B
:1017C000CE010E940102DFBEDF91CF911F910F91E8
:1017D000FF90EF90DF900895FF920F931F93CF93A8
:1017E000DF93EC018B01FFB6F8940E94E001888141
:1017F000807CF8018083888D998D858396838A818A
:1018000082838C8184838B81838389818183CE01D0
:101810000E940102FFBEDF91CF911F910F91FF90B7
:101820000895CF92DF92EF92FF920F931F93CF9381
:10183000DF937C01D62E8A01862F837029F4962FA0
:101840009695969582E002C0962F80E090FF8F5F7C
:10185000E701A09698E0899FC00DD11D1124CFB655
:10186000F894C7010E94E001F80180818883828199
:101870008A8381818983D0FE02C083818E83C701E0
:101880000E940102CFBEDF91CF911F910F91FF9077
:10189000EF90DF90CF900895CF92DF92EF92FF927A
:1018A0000F931F93CF93DF937C01D62EEA01862FEF
:1018B000837029F4962F9695969582E002C0962F14
:1018C00080E090FF8F5F8701005E1F4F98E0899F47
:1018D000000D111D1124CFB6F894C7010E94E0013C
:1018E000F8018081888382818A8381818983D0FE07
:1018F00002C086818B83C7010E940102CFBEDF91A7
:10190000CF911F910F91FF90EF90DF90CF900895AE
:101910008FEF8093700080937100809372008093AA
:1019200073008093740080937500809376008FB766
:10193000F894E0E5F0E09081926090838FBF818120
:1019400081FFFDCF61E080E490E02AD08FB7F8946A
:10195000E0E5F0E090819E7F90838FBF08959FB770
:10196000F894E82FF0E0E059FF4F609580816823FC
:1019700060839FBF08959FB7F894E82FF0E0E05987
:10198000FF4F8081682B60839FBF08954091CA01FB
:10199000E62FF72F8093CA0184914093CA010895DE
:1019A0001BBEFC0128ED24BF60830895CF93DF9315
:1019B000FC01709620E030E0C62FD0E0DE01022E60
:1019C00002C0B595A7950A94E2F7A0FD50832F5F5A
:1019D0003F4F31962830310589F740FF0AC041FF5B
:1019E00003C0FC01658302C0FC016683FC016183C6
:1019F00002C0FC016283DF91CF91089543E050E083
:101A000061E080EE97E0D2DF43E050E062E080EEFC
:101A100097E0CCDF43E050E060E180E696E0C6DF8F
:101A200041E050E460E280E696E0C0DF40E05BE148
:101A300060E280E896E0BADF40E05BE162E080EAE5
:101A400096E0B4DF40E05BE164E080EA96E0AEDF80
:101A500043E050E062E080E696E0A8DF43E050E03B
:101A600068E080E696E0A2DF43E050E068E080EACC
:101A700096E09CDF43E050E061E080E696E096DF90
:101A800043E050E068E080E096E090DF41E050E025
:101A900060E180E896E08ADF43E050E062E080E6C3
:101AA00096E084DF43E050E068E080E696E07EDF89
:101AB00040E050E064E080E696E078DF43E050E00C
:101AC00060E180EA96E072DF40E050E061E080E0B3
:101AD00096E06CDF40E050E064E080E096E066DF96
:101AE00040E050E062E080E296E060DF43E050E0FA
:101AF00068E080E496E05ADF40E050E064E080E493
:101B000096E054DF43E050E068E080E696E04EDF88
:101B100040E050E064E080E696E048DF43E050E0DB
:101B200068E080E896E042DF40E050E064E080E872
:101B300096E03CCF08952F923F924F925F926F9222
:101B40007F928F929F92AF92BF92CF92DF92EF924D
:101B5000FF920F931F93CF93DF93CDB7DEB7E69736
:101B6000CDBFDEBF8F8F98A30F8D18A1FC0120E0A1
:101B700030E040E050E06894CC24C7F8D12C7C01E0
:101B80002417350774F0D901AA0FBB1FAE0DBF1D76
:101B90008D919C911197608171816D937C9380836D
:101BA0009183203831056CF08C2D9D2D281B390B2D
:101BB000959587952817390734F018161906B4F348
:101BC00002C08C2D9D2D280F391F4F5F5F4F32961D
:101BD000411581E05807A1F6E0E1F0E2EBA7FCA790
:101BE000E0E0F0E2EFA7F8ABE1E0F0E0EDA3FEA368
:101BF00009AB1AABEDA1FEA1EE0FFF1FEFA3F8A7F3
:101C0000EF87F88BEBA5FCA561917191EBA7FCA781
:101C1000EFA5F8A901911191EFA7F8ABEFA1F8A5F5
:101C2000EE0FFF1FED87FE872FA038A4E9A9FAA9C0
:101C300080E090E0A10168010D851E85DF01A20D05
:101C4000B31D2D913C911197E080F180E21AF30AC7
:101C5000F594E794ED92FC92A081B1812A0F3B1F8D
:101C60003595279520833183840F951FE00FF11F51
:101C70008F3F910519F314F3EDA1FEA1E330F105B7
:101C800008F492C1CF010297F695E795E9A7FAA764
:101C9000329708F489C19B01442737FD4095542FA2
:101CA0002D8B3E8B4F8B588F9601442737FD4095E7
:101CB000542F298F3A8F4B8F5C8FED85FE85E98BF2
:101CC000FA8B2F83388749875A874D885E886F88BB
:101CD000788CE9A5FAA5E9A3FAA38BA39CA3319676
:101CE000EDA7FEA72B863C86FBA1FB8BECA1EC8B22
:101CF000E1E0F0E0ED8FFE8F3FC1EB85FC85E20D6A
:101D0000F31DEBABFCAB80809180AA2497FCA094E0
:101D1000BA2CEB85FC852DA93EA9E20FF31FED83BC
:101D2000FE83C080D180EE24D7FCE094FE2CA50178
:101D30009401C301B20143D369837A838B839C836B
:101D4000A70196016F81788589859A8538D3298185
:101D50003A814B815C81260F371F481F591F012E86
:101D60001BE055954795379527951A95D1F7102D76
:101D700029833A834B835C83D1018D919C91959506
:101D80008795821B930BEBA9FCA9808391832F81FC
:101D9000388549855A85C501B40111D34B015C01D1
:101DA000A3019201C701B6010AD3861A970AA80AAD
:101DB000B90A072E7BE0B594A794979487947A95F7
:101DC000D1F7702DEDA9FEA9808191819595879518
:101DD00088199909ED81FE8180839183D1018D91CC
:101DE0009C91119795958795E981FA818E0F9F1F98
:101DF0008D939C93EDA9FEA98081918195958795FE
:101E0000880E991E80829182EF85F8890E0F1F1F20
:101E1000E989FA892E0E3F1EEDA9FEA92D853E8582
:101E2000E20FF31FEDABFEAB013031E013070CF412
:101E300064CFA30192016D897E898F89988DBFD26D
:101E40006B017C012F81388549855A85698D7A8D92
:101E50008B8D9C8DB4D2C61AD70AE80AF90A4601BE
:101E60005701072E7AE0B594A794979487947A95B2
:101E7000D1F7702D6D897E898F89988DA0D26B01E5
:101E80007C01A3019201698D7A8D8B8D9C8D97D2F7
:101E9000C60ED71EE81EF91ED701C601072E7AE02E
:101EA000B595A795979587957A95D1F7702D8F83DE
:101EB0009887A987BA87EB89FC893297EB8BFC8BD3
:101EC000ED8DFE8D319629A13AA1E217F30709F0B5
:101ED0004FC02D893E894F89588DC501B4016FD2FD
:101EE0002B013C01298D3A8D4B8D5C8D6F8178855E
:101EF00089859A8564D2461A570A680A790A032E98
:101F00003AE075946794579447943A95D1F7302DF9
:101F10002D893E894F89588D6F81788589859A856D
:101F20004ED26B017C01298D3A8D4B8D5C8DC501A4
:101F3000B40145D2C60ED71EE81EF91ED701C60150
:101F4000072E7AE0B595A795979587957A95D1F75D
:101F5000702D8F839887A987BA87EDA5FEA529A53F
:101F60003AA5E217F30708F4BFCE2B843C841CC0CB
:101F7000ED8FFE8F24013501E13031E0F3070CF0E5
:101F800058CF1F01220C331C4F8D58A1240E351E33
:101F90000B891C890E0F1F1F000F111F040F151F27
:101FA0000DAB1EAB8F01A9CEEDA1FEA1E230F10574
:101FB00088F19F0136952795C9012F3F310509F01A
:101FC0004CF5F901EE0FFF1F2F8D38A1E20FF31F23
:101FD0006F8578890D851E85DF01A20DB31D2D91BA
:101FE0003C91119740815181421B530B5595479568
:101FF0004D935C9340815181240F351F3595279572
:1020000020833183860F971FE00FF11F8F3F9105CB
:1020100019F314F3EBA5FCA5E052F04229F0EFA16F
:10202000F8A5EDA3FEA3E6CDE696CDBFDEBFDF911A
:10203000CF911F910F91FF90EF90DF90CF90BF90C5
:10204000AF909F908F907F906F905F904F903F9058
:102050002F9008958091702290917122E0E0F2E03B
:1020600044A155A19C01220F331FF901EE58FB4DED
:1020700040835183E8E2F2E044815581F901EE5852
:10208000FD4D40835183019680937022909371227D
:102090000895CF93DF93CDB7DEB72F97CDBFDEBFC7
:1020A00037DCACDCBE016F5F7F4F80E092E094DBF9
:1020B000AE01445F5F4F61E080E092E0EDDBAE0196
:1020C000485F5F4F62E080E092E0E6DB8B818F78D3
:1020D0009A81997E98619A8390E49C8382608B8335
:1020E00082E08D838BE18C871D86888789E08987D4
:1020F000BE016F5F7F4F80E092E01BDBAE01445F6B
:102100005F4F61E080E092E08CDBAE01485F5F4FA3
:1021100062E080E092E085DB87E0E0EAF0E0828345
:1021200080E092E00E94200280E098E00E948B080C
:102130006AE270E180E098E04CD8E0E0F8E081816C
:10214000887F818380E89CE086A397A386818C7F2B
:10215000868386818160868378948081807F816098
:102160008083E0E4F6E080E8818380E4818380E29C
:10217000818380E1818388E0818384E0818382E0C0
:10218000E0EEF7E081830F2EFCE76F2EF1E27F2E69
:10219000F02D0F2EF2EA8F2EF1E29F2EF02D0F2E52
:1021A000F0E7EF2EF2E2FF2EF02D0F2EFCE74F2E80
:1021B000F0E25F2EF02D0F2EF2EAAF2EF0E2BF2EEE
:1021C000F02D00E711E20F2EF0E42F2EF6E03F2E67
:1021D000F02D0F2EF2E7CF2EF5E2DF2EF02D8091BD
:1021E0007022909171228115914009F037C0F894C6
:1021F00082E08093E60782E794E2B3D882E794E234
:102200009ADC82E794E223D8E2E7F4E2A0E7B1E2C5
:10221000819191918D939D93EC15FD05C9F782E70E
:1022200092E29FD882E792E286DC82E792E20FD8C0
:10223000E2E7F2E2A0E7B0E222E733E28191919196
:102240008D939D93E217F307C9F7109270221092B5
:10225000712282E08093E5077894C1CFE2E7F1E252
:1022600080E090E021913191820F931FE615F705F0
:10227000C9F74A9724F081E080936F2002C0109242
:102280006F20F30180E090E021913191820F931F44
:10229000E815F905C9F74A9724F081E080936E208C
:1022A00002C010926E20F40180E090E02191319103
:1022B000820F931FEE15FF05C9F74A9724F081E0BE
:1022C00080936D2002C010926D20E2E7F0E280E082
:1022D00090E021913191820F931FE415F505C9F724
:1022E0004A9724F081E080936C2002C010926C2009
:1022F000F20180E090E021913191820F931FEA1565
:10230000FB05C9F74A9724F081E080936B2002C057
:1023100010926B20F50180E090E021913191820FC5
:10232000931FE017F107C9F74A9724F081E08093E3
:102330006A2002C010926A2080916F20882321F0C9
:1023400080E8F101858303C080E8F10186838091F4
:102350006E20882321F080E4F101858303C080E4AE
:10236000F101868380916D20882321F080E2F101C4
:10237000858303C080E2F101868380916C208823ED
:1023800021F080E1F101858303C080E1F1018683C2
:1023900080916B20882321F088E0F101858303C0C0
:1023A00088E0F101868380916A20882321F084E00F
:1023B000F101858314CF84E0F101868310CFDB0126
:1023C0008F939F9326D0BF91AF91A29F800D911DB7
:1023D000A39F900DB29F900D1124089505D0332333
:1023E00012F48A1B9B0B10C0A29FB001B39FC001C7
:1023F000A39F700D811D1124911DB29F700D811D31
:102400001124911D0895F0DFB7FF0895821B930BEF
:102410000895EADFA59F900DB49F900DA49F800DB5
:0A242000911D11240895F894FFCFD8
:10242A0000000004D4028701C700640032001900CA
:10243A0000FC0000D402B203EC03FB03FE03FF031B
:00000001FF
