:10000000FDC000001AC1000018C1000016C10000A8
:1000100014C1000012C1000010C100000EC1000098
:100020000CC100000AC1000008C1000006C10000A8
:1000300004C1000002C1000000C10000FEC00000B9
:10004000FCC00000FAC00000F8C00000F6C00000CC
:10005000F4C00000F2C00000F0C00000EEC00000DC
:10006000ECC00000EAC00000E8C00000E6C00000EC
:10007000E4C00000E2C00000E0C00000DEC00000FC
:10008000DCC00000DAC00000D8C00000D6C000000C
:10009000D4C00000D2C00000D0C00000EAC10000FF
:1000A0001AC200004AC200007AC20000C6C00000A6
:1000B000C4C00000C2C00000C0C00000BEC000003C
:1000C000BCC00000BAC00000B8C00000B6C000004C
:1000D000B4C00000B2C00000B0C00000AEC000005C
:1000E000ACC00000AAC00000A8C00000A6C000006C
:1000F000A4C00000A2C00000A0C000009EC000007C
:100100009CC000009AC0000098C0000096C000008B
:1001100094C0000092C0000090C00000E2C0000047
:1001200012C1000042C1000072C1000086C0000080
:1001300084C0000082C0000080C000007EC00000BB
:100140007CC000007AC0000078C0000076C00000CB
:1001500074C0000072C0000070C000006EC00000DB
:100160006CC000006AC0000068C0000066C00000EB
:1001700064C0000062C0000060C000005EC00000FB
:100180005CC000005AC0000058C0000056C000000B
:1001900054C0000052C0000050C000004EC000001B
:1001A0004CC000004AC0000048C0000046C000002B
:1001B00044C0000042C0000040C000003EC000003B
:1001C0003CC000003AC0000038C0000036C000004B
:1001D00034C0000032C0000030C000002EC000005B
:1001E0002CC000002AC0000028C0000026C000006B
:1001F00024C0000022C0000020C0000011241FBE47
:10020000CFEFCDBFDFE5DEBF00E00CBF10E2A0E026
:10021000B0E2EEE6FAE000E00BBF02C007900D92FC
:10022000A030B107D9F721E2A0E0B0E201C01D92F1
:10023000A03AB207E1F7C2D318C4E2CE811522E09A
:10024000920761F48091012091E0980F9093012032
:10025000811112C062E081E0CBC2089580349240E7
:1002600059F48091002091E0980F90930020811123
:1002700003C062E082E0BCC20895811522E09207CB
:1002800059F480910120815080930120811111C087
:1002900062E081E0B9C208958034924051F48091C7
:1002A0000020815080930020811103C062E082E031
:1002B000ABC208951F93CF93DF93EC011FB7F8945F
:1002C000BDDF8881816088831FBF8FB7F894EBE919
:1002D000F1E290819F5F90838FBFDF91CF911F915B
:1002E00008951F920F920FB60F9211240BB60F9222
:1002F0002F933F934F935F936F937F938F939F932E
:10030000AF93BF93EF93FF93E0E0F2E044A155A1D8
:10031000E0919821F091992161E080E092E01995B7
:10032000FF91EF91BF91AF919F918F917F916F91CD
:100330005F914F913F912F910F900BBE0F900FBE89
:100340000F901F9018951F920F920FB60F921124C5
:100350000BB60F922F933F934F935F936F937F93BF
:100360008F939F93AF93BF93EF93FF93E8E2F2E0F5
:1003700044815581E0919821F091992162E080E0DB
:1003800092E01995FF91EF91BF91AF919F918F915D
:100390007F916F915F914F913F912F910F900BBE85
:1003A0000F900FBE0F901F9018951F920F920FB6CF
:1003B0000F9211240BB60F922F933F934F935F939D
:1003C0006F937F938F939F93AF93BF93EF93FF931D
:1003D000E0E3F2E044815581E0919821F091992188
:1003E00064E080E092E01995FF91EF91BF91AF91A9
:1003F0009F918F917F916F915F914F913F912F913D
:100400000F900BBE0F900FBE0F901F9018951F926C
:100410000F920FB60F9211240BB60F922F933F93AA
:100420004F935F936F937F938F939F93AF93BF93FC
:10043000EF93FF93E8E3F2E044815581E091982146
:10044000F091992168E080E092E01995FF91EF9199
:10045000BF91AF919F918F917F916F915F914F91DC
:100460003F912F910F900BBE0F900FBE0F901F90DA
:1004700018951F920F920FB60F9211240BB60F9280
:100480002F933F934F935F936F937F938F939F939C
:10049000AF93BF93EF93FF93E0E4F2E044A155A143
:1004A000E0919621F091972161E080E492E0199526
:1004B000FF91EF91BF91AF919F918F917F916F913C
:1004C0005F914F913F912F910F900BBE0F900FBEF8
:1004D0000F901F9018951F920F920FB60F92112434
:1004E0000BB60F922F933F934F935F936F937F932E
:1004F0008F939F93AF93BF93EF93FF93E8E6F2E060
:1005000044815581E0919621F091972162E080E449
:1005100092E01995FF91EF91BF91AF919F918F91CB
:100520007F916F915F914F913F912F910F900BBEF3
:100530000F900FBE0F901F9018951F920F920FB63D
:100540000F9211240BB60F922F933F934F935F930B
:100550006F937F938F939F93AF93BF93EF93FF938B
:10056000E0E7F2E044815581E0919621F0919721F6
:1005700064E080E492E01995FF91EF91BF91AF9113
:100580009F918F917F916F915F914F913F912F91AB
:100590000F900BBE0F900FBE0F901F9018951F92DB
:1005A0000F920FB60F9211240BB60F922F933F9319
:1005B0004F935F936F937F938F939F93AF93BF936B
:1005C000EF93FF93E8E7F2E044815581E0919621B3
:1005D000F091972168E080E492E01995FF91EF9106
:1005E000BF91AF919F918F917F916F915F914F914B
:1005F0003F912F910F900BBE0F900FBE0F901F9049
:100600001895DF92EF92FF920F931F93CF93DF9392
:10061000EC018B01C11522E0D20771F461E270E0B8
:1006200082E0FDD0E82EF12C60E270E082E0F7D0AD
:10063000FE2CEE24E82A10C08034924059F565E281
:1006400070E082E0ECD0E82EF12C64E270E082E011
:10065000E6D0FE2CEE24E82ADFB6F894CE01EEDDDB
:10066000288182E08883EC86FD86F8018581968169
:10067000888F998F82818A8384818C8383818B8305
:1006800081818983822F81709081892B8883CE011B
:10069000F4DDDFBEDF91CF911F910F91FF90EF90BE
:1006A000DF900895FF920F931F93CF93DF93EC0198
:1006B0008B01FFB6F894C2DD8881807CF8018083CD
:1006C000888D998D858396838A8182838C818483AA
:1006D0008B81838389818183CE01CFDDFFBEDF9152
:1006E000CF911F910F91FF900895CF92DF92EF92DB
:1006F000FF920F931F93CF93DF937C01D62E8A0135
:10070000862F837029F4962F9695969582E002C0E5
:10071000962F80E090FF8F5FE701A09698E0899F79
:10072000C00DD11D1124CFB6F894C70187DDF801A3
:100730008081888382818A8381818983D0FE02C0FF
:1007400083818E83C70199DDCFBEDF91CF911F9149
:100750000F91FF90EF90DF90CF900895CF92DF92AE
:10076000EF92FF920F931F93CF93DF937C01D62ECE
:10077000EA01862F837029F4962F9695969582E04C
:1007800002C0962F80E090FF8F5F8701005E1F4FB1
:1007900098E0899F000D111D1124CFB6F894C70170
:1007A0004DDDF8018081888382818A8381818983FC
:1007B000D0FE02C086818B83C7015FDDCFBEDF9193
:1007C000CF911F910F91FF90EF90DF90CF90089500
:1007D0008FEF8093700080937100809372008093FC
:1007E0007300809374008093750080937600089561
:1007F0009FB7F894E82FF0E0E059FF4F60958081B3
:10080000682360839FBF08959FB7F894E82FF0E0B6
:10081000E059FF4F8081682B60839FBF089540910E
:10082000CA01E62FF72F8093CA0184914093CA0131
:100830000895CF93DF93FC01709620E030E0C62F3F
:10084000D0E0DE01022E02C0B595A7950A94E2F72A
:10085000A0FD50832F5F3F4F31962830310589F737
:1008600040FF0AC041FF03C0FC01658302C0FC01D8
:100870006683FC01618302C0FC016283DF91CF913A
:10088000089543E050E061E080EE97E0D2DF43E07E
:1008900050E062E080EE97E0CCDF43E050E060E1C2
:1008A00080E696E0C6DF41E050E460E280E696E054
:1008B000C0DF40E05BE160E280E896E0BADF40E064
:1008C0005BE162E080EA96E0B4DF40E05BE164E097
:1008D00080EA96E0AEDF43E050E062E080E696E03A
:1008E000A8DF43E050E068E080E696E0A2DF43E066
:1008F00050E068E080EA96E09CDF43E050E061E091
:1009000080E696E096DF43E050E068E080E096E025
:1009100090DF41E050E060E180E896E08ADF43E06C
:1009200050E062E080E696E084DF43E050E068E07B
:1009300080E696E07EDF40E050E064E080E696E00E
:1009400078DF43E050E060E180EA96E072DF40E06B
:1009500050E061E080E096E06CDF40E050E064E071
:1009600080E096E066DF40E050E062E080E296E002
:1009700060DF43E050E068E080E496E05ADF40E06A
:1009800050E064E080E496E054DF43E050E068E04B
:1009900080E696E04EDF40E050E064E080E696E0DE
:1009A00048DF43E050E068E080E896E042DF40E066
:1009B00050E064E080E896E03CCF0895CF93DF9369
:1009C000CDB7DEB72B97CDBFDEBF02DF5ADFBE014A
:1009D0006F5F7F4F80E092E065DEAE01485F5F4F62
:1009E00061E080E092E0BADE8A81897E9B819F7817
:1009F0009B8388618A831D8283E188871986BE0173
:100A00006F5F7F4F80E092E0FCDDAE01485F5F4F9B
:100A100061E080E092E069DE80E092E04BDCE0E0C3
:100A2000F2E08FB7F8949081946090838FBF24A1F7
:100A300035A120939421309395218091922190911A
:100A40009321DC01AA0FBB1FAE5FBF4D2D933C93DA
:100A500001968093922190939321883C910509F708
:0E0A60001092922110929321DCCFF894FFCFD8
:00000001FF
